:03000000000000fd
:03000100000324d5
:03000200000648ad
:0300030000096d84
:03000400000c915c
:03000500000fb534
:030006000012d90c
:030007000015fee3
:03000800001922ba
:03000900001c4692
:03000a00001f6a6a
:03000b0000228f41
:03000c000025b319
:03000d000028d7f1
:03000e00002bfbc9
:03000f00002f209f
:0300100000324477
:030011000035684f
:0300120000388c27
:03001300003bb1fe
:03001400003ed5d6
:030015000041f9ae
:0300160000451d85
:030017000048425c
:03001800004b6634
:03001900004e8a0c
:03001a000051aee4
:03001b000054d3bb
:03001c000057f793
:03001d00005b1b6a
:03001e00005e3f42
:03001f0000616419
:03002000006488f1
:030021000067acc9
:03002200006ad0a1
:03002300006df578
:030024000071194f
:0300250000743d27
:03002600007761ff
:03002700007a86d6
:03002800007daaae
:030029000080ce86
:03002a000083f25e
:03002b0000871734
:03002c00008a3b0c
:03002d00008d5fe4
:03002e00009083bc
:03002f000093a893
:030030000096cc6b
:030031000099f043
:03003200009d141a
:0300330000a038f2
:0300340000a35dc9
:0300350000a681a1
:0300360000a9a579
:0300370000acc951
:0300380000afee28
:0300390000b312ff
:03003a0000b636d7
:03003b0000b95aaf
:03003c0000bc7f86
:03003d0000bfa35e
:03003e0000c2c736
:03003f0000c5eb0e
:0300400000c910e4
:0300410000cc34bc
:0300420000cf5894
:0300430000d27c6c
:0300440000d5a044
:0300450000d8c51b
:0300460000dbe9f3
:0300470000df0dca
:0300480000e231a2
:0300490000e55679
:03004a0000e87a51
:03004b0000eb9e29
:03004c0000eec201
:03004d0000f1e7d8
:03004e0000f50baf
:03004f0000f82f87
:0300500000fb535f
:0300510000fe7737
:0300520001019c0d
:030053000104c0e5
:030054000107e4bd
:03005500010b0894
:03005600010e2d6b
:0300570001115143
:030058000114751b
:03005900011799f3
:03005a00011abdcb
:03005b00011de2a2
:03005c0001210679
:03005d0001242a51
:03005e0001274e29
:03005f00012a7201
:03006000012d97d8
:030061000130bbb0
:030062000133df88
:030063000137035f
:03006400013a2836
:03006500013d4c0e
:03006600014070e6
:03006700014394be
:030068000146b896
:030069000149dd6d
:03006a00014d0144
:03006b000150251c
:03006c00015349f4
:03006d0001566dcc
:03006e00015992a3
:03006f00015cb67b
:03007000015fda53
:030071000162fe2b
:0300720001662202
:03007300016947d9
:03007400016c6bb1
:03007500016f8f89
:030076000172b361
:030077000175d739
:030078000178fc10
:03007900017c20e7
:03007a00017f44bf
:03007b0001826897
:03007c0001858c6f
:03007d000188b146
:03007e00018bd51e
:03007f00018ef9f6
:0300800001921dcd
:03008100019541a5
:030082000198657d
:03008300019b8a54
:03008400019eae2c
:0300850001a1d204
:0300860001a4f6dc
:0300870001a81ab3
:0300880001ab3f8a
:0300890001ae6362
:03008a0001b1873a
:03008b0001b4ab12
:03008c0001b7cfea
:03008d0001baf3c2
:03008e0001be1898
:03008f0001c13c70
:0300900001c46048
:0300910001c78420
:0300920001caa8f8
:0300930001cdccd0
:0300940001d0f1a7
:0300950001d4157e
:0300960001d73956
:0300970001da5d2e
:0300980001dd8106
:0300990001e0a5de
:03009a0001e3cab5
:03009b0001e6ee8d
:03009c0001ea1264
:03009d0001ed363c
:03009e0001f05a14
:03009f0001f37eec
:0300a00001f6a3c3
:0300a10001f9c79b
:0300a20001fceb73
:0300a30002000f49
:0300a40002033321
:0300a500020657f9
:0300a60002097bd1
:0300a700020ca0a8
:0300a800020fc480
:0300a9000212e858
:0300aa0002160c2f
:0300ab0002193007
:0300ac00021c54df
:0300ad00021f78b7
:0300ae0002229d8e
:0300af000225c166
:0300b0000228e53e
:0300b100022c0915
:0300b200022f2ded
:0300b300023251c5
:0300b4000235759d
:0300b50002389a74
:0300b600023bbe4c
:0300b700023ee224
:0300b800024206fb
:0300b90002452ad3
:0300ba0002484eab
:0300bb00024b7283
:0300bc00024e965b
:0300bd000251ba33
:0300be000254df0a
:0300bf00025803e1
:0300c000025b27b9
:0300c100025e4b91
:0300c20002616f69
:0300c30002649341
:0300c4000267b719
:0300c500026adbf1
:0300c600026dffc9
:0300c7000271249f
:0300c80002744877
:0300c90002776c4f
:0300ca00027a9027
:0300cb00027db4ff
:0300cc000280d8d7
:0300cd000283fcaf
:0300ce0002872086
:0300cf00028a445e
:0300d000028d6836
:0300d10002908d0d
:0300d2000293b1e5
:0300d3000296d5bd
:0300d4000299f995
:0300d500029d1d6c
:0300d60002a04144
:0300d70002a3651c
:0300d80002a689f4
:0300d90002a9adcc
:0300da0002acd1a4
:0300db0002aff57c
:0300dc0002b31953
:0300dd0002b63d2b
:0300de0002b96103
:0300df0002bc86da
:0300e00002bfaab2
:0300e10002c2ce8a
:0300e20002c5f262
:0300e30002c91639
:0300e40002cc3a11
:0300e50002cf5ee9
:0300e60002d282c1
:0300e70002d5a699
:0300e80002d8ca71
:0300e90002dbee49
:0300ea0002df1220
:0300eb0002e236f8
:0300ec0002e55ad0
:0300ed0002e87ea8
:0300ee0002eba280
:0300ef0002eec658
:0300f00002f1ea30
:0300f10002f50e07
:0300f20002f832df
:0300f30002fb56b7
:0300f40002fe7b8e
:0300f50003019f65
:0300f6000304c33d
:0300f7000307e715
:0300f800030b0bec
:0300f900030e2fc4
:0300fa000311539c
:0300fb0003147774
:0300fc0003179b4c
:0300fd00031abf24
:0300fe00031de3fc
:0300ff00032107d3
:00000001FF
